{
	"DonationRouter.sol": {
		"DonationRouter": {
			"abi": [
				{
					"inputs": [
						{
							"internalType": "address",
							"name": "registryAddr",
							"type": "address"
						},
						{
							"internalType": "address",
							"name": "tokenAddr",
							"type": "address"
						},
						{
							"internalType": "uint256",
							"name": "rate",
							"type": "uint256"
						}
					],
					"stateMutability": "nonpayable",
					"type": "constructor"
				},
				{
					"inputs": [
						{
							"internalType": "address",
							"name": "recipient",
							"type": "address"
						}
					],
					"name": "donate",
					"outputs": [],
					"stateMutability": "payable",
					"type": "function"
				},
				{
					"inputs": [],
					"name": "donationRate",
					"outputs": [
						{
							"internalType": "uint256",
							"name": "",
							"type": "uint256"
						}
					],
					"stateMutability": "view",
					"type": "function"
				},
				{
					"inputs": [],
					"name": "registry",
					"outputs": [
						{
							"internalType": "contract IHealthActorRegistry",
							"name": "",
							"type": "address"
						}
					],
					"stateMutability": "view",
					"type": "function"
				},
				{
					"inputs": [],
					"name": "token",
					"outputs": [
						{
							"internalType": "contract IFlamebornToken",
							"name": "",
							"type": "address"
						}
					],
					"stateMutability": "view",
					"type": "function"
				}
			],
			"devdoc": {
				"kind": "dev",
				"methods": {},
				"version": 1
			},
			"evm": {
				"assembly": "    /* \"DonationRouter.sol\":327:1146  contract DonationRouter is ReentrancyGuard {... */\n  mstore(0x40, 0x80)\n    /* \"DonationRouter.sol\":515:721  constructor(address registryAddr, address tokenAddr, uint256 rate) {... */\n  callvalue\n  dup1\n  iszero\n  tag_1\n  jumpi\n  revert(0x00, 0x00)\ntag_1:\n  pop\n  mload(0x40)\n  sub(codesize, bytecodeSize)\n  dup1\n  bytecodeSize\n  dup4\n  codecopy\n  dup2\n  add\n  0x40\n  dup2\n  swap1\n  mstore\n  tag_2\n  swap2\n  tag_3\n  jump\t// in\ntag_2:\n    /* \"@openzeppelin/contracts/security/ReentrancyGuard.sol\":1716:1717  1 */\n  0x01\n    /* \"@openzeppelin/contracts/security/ReentrancyGuard.sol\":1821:1828  _status */\n  0x00\n    /* \"@openzeppelin/contracts/security/ReentrancyGuard.sol\":1821:1843  _status = _NOT_ENTERED */\n  dup2\n  swap1\n  sstore\n    /* \"DonationRouter.sol\":593:638  registry = IHealthActorRegistry(registryAddr) */\n  dup1\n  sload\n  sub(shl(0xa0, 0x01), 0x01)\n  swap5\n  dup6\n  and\n  not(sub(shl(0xa0, 0x01), 0x01))\n  swap2\n  dup3\n  and\n  or\n  swap1\n  swap2\n  sstore\n    /* \"DonationRouter.sol\":649:654  token */\n  0x02\n    /* \"DonationRouter.sol\":649:683  token = IFlamebornToken(tokenAddr) */\n  dup1\n  sload\n  swap4\n  swap1\n  swap5\n  and\n  swap3\n  and\n  swap2\n  swap1\n  swap2\n  or\n  swap1\n  swap2\n  sstore\n    /* \"DonationRouter.sol\":694:706  donationRate */\n  0x03\n    /* \"DonationRouter.sol\":694:713  donationRate = rate */\n  sstore\n    /* \"DonationRouter.sol\":327:1146  contract DonationRouter is ReentrancyGuard {... */\n  jump(tag_10)\n    /* \"#utility.yul\":14:191   */\ntag_9:\n    /* \"#utility.yul\":93:106   */\n  dup1\n  mload\n  sub(shl(0xa0, 0x01), 0x01)\n    /* \"#utility.yul\":135:166   */\n  dup2\n  and\n    /* \"#utility.yul\":125:167   */\n  dup2\n  eq\n    /* \"#utility.yul\":115:185   */\n  tag_12\n  jumpi\n    /* \"#utility.yul\":181:182   */\n  0x00\n    /* \"#utility.yul\":178:179   */\n  0x00\n    /* \"#utility.yul\":171:183   */\n  revert\n    /* \"#utility.yul\":115:185   */\ntag_12:\n    /* \"#utility.yul\":14:191   */\n  swap2\n  swap1\n  pop\n  jump\t// out\n    /* \"#utility.yul\":196:550   */\ntag_3:\n    /* \"#utility.yul\":284:290   */\n  0x00\n    /* \"#utility.yul\":292:298   */\n  0x00\n    /* \"#utility.yul\":300:306   */\n  0x00\n    /* \"#utility.yul\":353:355   */\n  0x60\n    /* \"#utility.yul\":341:350   */\n  dup5\n    /* \"#utility.yul\":332:339   */\n  dup7\n    /* \"#utility.yul\":328:351   */\n  sub\n    /* \"#utility.yul\":324:356   */\n  slt\n    /* \"#utility.yul\":321:373   */\n  iszero\n  tag_14\n  jumpi\n    /* \"#utility.yul\":369:370   */\n  0x00\n    /* \"#utility.yul\":366:367   */\n  0x00\n    /* \"#utility.yul\":359:371   */\n  revert\n    /* \"#utility.yul\":321:373   */\ntag_14:\n    /* \"#utility.yul\":392:432   */\n  tag_15\n    /* \"#utility.yul\":422:431   */\n  dup5\n    /* \"#utility.yul\":392:432   */\n  tag_9\n  jump\t// in\ntag_15:\n    /* \"#utility.yul\":382:432   */\n  swap3\n  pop\n    /* \"#utility.yul\":451:500   */\n  tag_16\n    /* \"#utility.yul\":496:498   */\n  0x20\n    /* \"#utility.yul\":485:494   */\n  dup6\n    /* \"#utility.yul\":481:499   */\n  add\n    /* \"#utility.yul\":451:500   */\n  tag_9\n  jump\t// in\ntag_16:\n    /* \"#utility.yul\":441:500   */\n  swap2\n  pop\n    /* \"#utility.yul\":540:542   */\n  0x40\n    /* \"#utility.yul\":529:538   */\n  dup5\n    /* \"#utility.yul\":525:543   */\n  add\n    /* \"#utility.yul\":519:544   */\n  mload\n    /* \"#utility.yul\":509:544   */\n  swap1\n  pop\n    /* \"#utility.yul\":196:550   */\n  swap3\n  pop\n  swap3\n  pop\n  swap3\n  jump\t// out\ntag_10:\n    /* \"DonationRouter.sol\":327:1146  contract DonationRouter is ReentrancyGuard {... */\n  dataSize(sub_0)\n  dup1\n  dataOffset(sub_0)\n  0x00\n  codecopy\n  0x00\n  return\nstop\n\nsub_0: assembly {\n        /* \"DonationRouter.sol\":327:1146  contract DonationRouter is ReentrancyGuard {... */\n      mstore(0x40, 0x80)\n      jumpi(tag_1, lt(calldatasize, 0x04))\n      shr(0xe0, calldataload(0x00))\n      dup1\n      0x362a95\n      eq\n      tag_2\n      jumpi\n      dup1\n      0x0d38ffcd\n      eq\n      tag_3\n      jumpi\n      dup1\n      0x7b103999\n      eq\n      tag_4\n      jumpi\n      dup1\n      0xfc0c546a\n      eq\n      tag_5\n      jumpi\n    tag_1:\n      revert(0x00, 0x00)\n        /* \"DonationRouter.sol\":729:1143  function donate(address recipient) external payable nonReentrant {... */\n    tag_2:\n      tag_6\n      tag_7\n      calldatasize\n      0x04\n      tag_8\n      jump\t// in\n    tag_7:\n      tag_9\n      jump\t// in\n    tag_6:\n      stop\n        /* \"DonationRouter.sol\":455:482  uint256 public donationRate */\n    tag_3:\n      callvalue\n      dup1\n      iszero\n      tag_10\n      jumpi\n      revert(0x00, 0x00)\n    tag_10:\n      pop\n      tag_11\n      sload(0x03)\n      dup2\n      jump\n    tag_11:\n      mload(0x40)\n        /* \"#utility.yul\":451:476   */\n      swap1\n      dup2\n      mstore\n        /* \"#utility.yul\":439:441   */\n      0x20\n        /* \"#utility.yul\":424:442   */\n      add\n        /* \"DonationRouter.sol\":455:482  uint256 public donationRate */\n    tag_13:\n      mload(0x40)\n      dup1\n      swap2\n      sub\n      swap1\n      return\n        /* \"DonationRouter.sol\":377:413  IHealthActorRegistry public registry */\n    tag_4:\n      callvalue\n      dup1\n      iszero\n      tag_15\n      jumpi\n      revert(0x00, 0x00)\n    tag_15:\n      pop\n      sload(0x01)\n      tag_16\n      swap1\n      sub(shl(0xa0, 0x01), 0x01)\n      and\n      dup2\n      jump\n    tag_16:\n      mload(0x40)\n      sub(shl(0xa0, 0x01), 0x01)\n        /* \"#utility.yul\":678:710   */\n      swap1\n      swap2\n      and\n        /* \"#utility.yul\":660:711   */\n      dup2\n      mstore\n        /* \"#utility.yul\":648:650   */\n      0x20\n        /* \"#utility.yul\":633:651   */\n      add\n        /* \"DonationRouter.sol\":377:413  IHealthActorRegistry public registry */\n      tag_13\n        /* \"#utility.yul\":487:717   */\n      jump\n        /* \"DonationRouter.sol\":420:448  IFlamebornToken public token */\n    tag_5:\n      callvalue\n      dup1\n      iszero\n      tag_20\n      jumpi\n      revert(0x00, 0x00)\n    tag_20:\n      pop\n      sload(0x02)\n      tag_16\n      swap1\n      sub(shl(0xa0, 0x01), 0x01)\n      and\n      dup2\n      jump\n        /* \"DonationRouter.sol\":729:1143  function donate(address recipient) external payable nonReentrant {... */\n    tag_9:\n        /* \"@openzeppelin/contracts/security/ReentrancyGuard.sol\":2261:2282  _nonReentrantBefore() */\n      tag_26\n        /* \"@openzeppelin/contracts/security/ReentrancyGuard.sol\":2261:2280  _nonReentrantBefore */\n      tag_27\n        /* \"@openzeppelin/contracts/security/ReentrancyGuard.sol\":2261:2282  _nonReentrantBefore() */\n      jump\t// in\n    tag_26:\n        /* \"DonationRouter.sol\":825:826  0 */\n      0x00\n        /* \"DonationRouter.sol\":813:822  msg.value */\n      callvalue\n        /* \"DonationRouter.sol\":813:826  msg.value > 0 */\n      gt\n        /* \"DonationRouter.sol\":805:849  require(msg.value > 0, \"Must send donation\") */\n      tag_29\n      jumpi\n      mload(0x40)\n      shl(0xe5, 0x461bcd)\n      dup2\n      mstore\n        /* \"#utility.yul\":1154:1156   */\n      0x20\n        /* \"DonationRouter.sol\":805:849  require(msg.value > 0, \"Must send donation\") */\n      0x04\n      dup3\n      add\n        /* \"#utility.yul\":1136:1157   */\n      mstore\n        /* \"#utility.yul\":1193:1195   */\n      0x12\n        /* \"#utility.yul\":1173:1191   */\n      0x24\n      dup3\n      add\n        /* \"#utility.yul\":1166:1196   */\n      mstore\n      shl(0x71, 0x26bab9ba1039b2b732103237b730ba34b7b7)\n        /* \"#utility.yul\":1212:1230   */\n      0x44\n      dup3\n      add\n        /* \"#utility.yul\":1205:1253   */\n      mstore\n        /* \"#utility.yul\":1270:1288   */\n      0x64\n      add\n        /* \"DonationRouter.sol\":805:849  require(msg.value > 0, \"Must send donation\") */\n    tag_30:\n      mload(0x40)\n      dup1\n      swap2\n      sub\n      swap1\n      revert\n    tag_29:\n        /* \"DonationRouter.sol\":868:876  registry */\n      sload(0x01)\n        /* \"DonationRouter.sol\":868:898  registry.isVerified(recipient) */\n      mload(0x40)\n      shl(0xe0, 0xb9209e33)\n      dup2\n      mstore\n      sub(shl(0xa0, 0x01), 0x01)\n        /* \"#utility.yul\":678:710   */\n      dup4\n      dup2\n      and\n        /* \"DonationRouter.sol\":868:898  registry.isVerified(recipient) */\n      0x04\n      dup4\n      add\n        /* \"#utility.yul\":660:711   */\n      mstore\n        /* \"DonationRouter.sol\":868:876  registry */\n      swap1\n      swap2\n      and\n      swap1\n        /* \"DonationRouter.sol\":868:887  registry.isVerified */\n      0xb9209e33\n      swap1\n        /* \"#utility.yul\":633:651   */\n      0x24\n      add\n        /* \"DonationRouter.sol\":868:898  registry.isVerified(recipient) */\n      0x20\n      mload(0x40)\n      dup1\n      dup4\n      sub\n      dup2\n      dup7\n      gas\n      staticcall\n      iszero\n      dup1\n      iszero\n      tag_35\n      jumpi\n      returndatacopy(0x00, 0x00, returndatasize)\n      revert(0x00, returndatasize)\n    tag_35:\n      pop\n      pop\n      pop\n      pop\n      mload(0x40)\n      returndatasize\n      not(0x1f)\n      0x1f\n      dup3\n      add\n      and\n      dup3\n      add\n      dup1\n      0x40\n      mstore\n      pop\n      dup2\n      add\n      swap1\n      tag_36\n      swap2\n      swap1\n      tag_37\n      jump\t// in\n    tag_36:\n        /* \"DonationRouter.sol\":860:925  require(registry.isVerified(recipient), \"Recipient not verified\") */\n      tag_38\n      jumpi\n      mload(0x40)\n      shl(0xe5, 0x461bcd)\n      dup2\n      mstore\n        /* \"#utility.yul\":1991:1993   */\n      0x20\n        /* \"DonationRouter.sol\":860:925  require(registry.isVerified(recipient), \"Recipient not verified\") */\n      0x04\n      dup3\n      add\n        /* \"#utility.yul\":1973:1994   */\n      mstore\n        /* \"#utility.yul\":2030:2032   */\n      0x16\n        /* \"#utility.yul\":2010:2028   */\n      0x24\n      dup3\n      add\n        /* \"#utility.yul\":2003:2033   */\n      mstore\n      shl(0x52, 0x149958da5c1a595b9d081b9bdd081d995c9a599a5959)\n        /* \"#utility.yul\":2049:2067   */\n      0x44\n      dup3\n      add\n        /* \"#utility.yul\":2042:2094   */\n      mstore\n        /* \"#utility.yul\":2111:2129   */\n      0x64\n      add\n        /* \"DonationRouter.sol\":860:925  require(registry.isVerified(recipient), \"Recipient not verified\") */\n      tag_30\n        /* \"#utility.yul\":1789:2135   */\n      jump\n        /* \"DonationRouter.sol\":860:925  require(registry.isVerified(recipient), \"Recipient not verified\") */\n    tag_38:\n        /* \"DonationRouter.sol\":939:948  bool sent */\n      0x00\n        /* \"DonationRouter.sol\":953:962  recipient */\n      dup2\n      sub(shl(0xa0, 0x01), 0x01)\n        /* \"DonationRouter.sol\":953:967  recipient.call */\n      and\n        /* \"DonationRouter.sol\":975:984  msg.value */\n      callvalue\n        /* \"DonationRouter.sol\":953:989  recipient.call{value: msg.value}(\"\") */\n      mload(0x40)\n      0x00\n      mload(0x40)\n      dup1\n      dup4\n      sub\n      dup2\n      dup6\n      dup8\n      gas\n      call\n      swap3\n      pop\n      pop\n      pop\n      returndatasize\n      dup1\n      0x00\n      dup2\n      eq\n      tag_45\n      jumpi\n      mload(0x40)\n      swap2\n      pop\n      and(add(returndatasize, 0x3f), not(0x1f))\n      dup3\n      add\n      0x40\n      mstore\n      returndatasize\n      dup3\n      mstore\n      returndatasize\n      0x00\n      0x20\n      dup5\n      add\n      returndatacopy\n      jump(tag_44)\n    tag_45:\n      0x60\n      swap2\n      pop\n    tag_44:\n      pop\n        /* \"DonationRouter.sol\":938:989  (bool sent,) = recipient.call{value: msg.value}(\"\") */\n      pop\n      swap1\n      pop\n        /* \"DonationRouter.sol\":1008:1012  sent */\n      dup1\n        /* \"DonationRouter.sol\":1000:1032  require(sent, \"Transfer failed\") */\n      tag_46\n      jumpi\n      mload(0x40)\n      shl(0xe5, 0x461bcd)\n      dup2\n      mstore\n        /* \"#utility.yul\":2552:2554   */\n      0x20\n        /* \"DonationRouter.sol\":1000:1032  require(sent, \"Transfer failed\") */\n      0x04\n      dup3\n      add\n        /* \"#utility.yul\":2534:2555   */\n      mstore\n        /* \"#utility.yul\":2591:2593   */\n      0x0f\n        /* \"#utility.yul\":2571:2589   */\n      0x24\n      dup3\n      add\n        /* \"#utility.yul\":2564:2594   */\n      mstore\n      shl(0x8a, 0x151c985b9cd9995c8819985a5b1959)\n        /* \"#utility.yul\":2610:2628   */\n      0x44\n      dup3\n      add\n        /* \"#utility.yul\":2603:2648   */\n      mstore\n        /* \"#utility.yul\":2665:2683   */\n      0x64\n      add\n        /* \"DonationRouter.sol\":1000:1032  require(sent, \"Transfer failed\") */\n      tag_30\n        /* \"#utility.yul\":2350:2689   */\n      jump\n        /* \"DonationRouter.sol\":1000:1032  require(sent, \"Transfer failed\") */\n    tag_46:\n        /* \"DonationRouter.sol\":1045:1063  uint256 mintAmount */\n      0x00\n        /* \"DonationRouter.sol\":1078:1090  donationRate */\n      sload(0x03)\n        /* \"DonationRouter.sol\":1066:1075  msg.value */\n      callvalue\n        /* \"DonationRouter.sol\":1066:1090  msg.value * donationRate */\n      tag_49\n      swap2\n      swap1\n      tag_50\n      jump\t// in\n    tag_49:\n        /* \"DonationRouter.sol\":1101:1106  token */\n      sload(0x02)\n        /* \"DonationRouter.sol\":1101:1135  token.mint(msg.sender, mintAmount) */\n      mload(0x40)\n      shl(0xe0, 0x40c10f19)\n      dup2\n      mstore\n        /* \"DonationRouter.sol\":1112:1122  msg.sender */\n      caller\n        /* \"DonationRouter.sol\":1101:1135  token.mint(msg.sender, mintAmount) */\n      0x04\n      dup3\n      add\n        /* \"#utility.yul\":3138:3189   */\n      mstore\n        /* \"#utility.yul\":3205:3223   */\n      0x24\n      dup2\n      add\n        /* \"#utility.yul\":3198:3232   */\n      dup4\n      swap1\n      mstore\n        /* \"DonationRouter.sol\":1045:1090  uint256 mintAmount = msg.value * donationRate */\n      swap2\n      swap3\n      pop\n      sub(shl(0xa0, 0x01), 0x01)\n        /* \"DonationRouter.sol\":1101:1106  token */\n      and\n      swap1\n        /* \"DonationRouter.sol\":1101:1111  token.mint */\n      0x40c10f19\n      swap1\n        /* \"#utility.yul\":3111:3129   */\n      0x44\n      add\n        /* \"DonationRouter.sol\":1101:1135  token.mint(msg.sender, mintAmount) */\n      0x00\n      mload(0x40)\n      dup1\n      dup4\n      sub\n      dup2\n      0x00\n      dup8\n      dup1\n      extcodesize\n      iszero\n      dup1\n      iszero\n      tag_53\n      jumpi\n      revert(0x00, 0x00)\n    tag_53:\n      pop\n      gas\n      call\n      iszero\n      dup1\n      iszero\n      tag_55\n      jumpi\n      returndatacopy(0x00, 0x00, returndatasize)\n      revert(0x00, returndatasize)\n    tag_55:\n      pop\n      pop\n      pop\n      pop\n        /* \"DonationRouter.sol\":794:1143  {... */\n      pop\n      pop\n        /* \"@openzeppelin/contracts/security/ReentrancyGuard.sol\":2303:2323  _nonReentrantAfter() */\n      tag_56\n        /* \"@openzeppelin/contracts/security/ReentrancyGuard.sol\":1716:1717  1 */\n      0x01\n        /* \"@openzeppelin/contracts/security/ReentrancyGuard.sol\":2809:2816  _status */\n      0x00\n        /* \"@openzeppelin/contracts/security/ReentrancyGuard.sol\":2809:2831  _status = _NOT_ENTERED */\n      sstore\n        /* \"@openzeppelin/contracts/security/ReentrancyGuard.sol\":2629:2838  function _nonReentrantAfter() private {... */\n      jump\n        /* \"@openzeppelin/contracts/security/ReentrancyGuard.sol\":2303:2323  _nonReentrantAfter() */\n    tag_56:\n        /* \"DonationRouter.sol\":729:1143  function donate(address recipient) external payable nonReentrant {... */\n      pop\n      jump\t// out\n        /* \"@openzeppelin/contracts/security/ReentrancyGuard.sol\":2336:2623  function _nonReentrantBefore() private {... */\n    tag_27:\n        /* \"@openzeppelin/contracts/security/ReentrancyGuard.sol\":1759:1760  2 */\n      0x02\n        /* \"@openzeppelin/contracts/security/ReentrancyGuard.sol\":2468:2475  _status */\n      sload(0x00)\n        /* \"@openzeppelin/contracts/security/ReentrancyGuard.sol\":2468:2487  _status != _ENTERED */\n      sub\n        /* \"@openzeppelin/contracts/security/ReentrancyGuard.sol\":2460:2523  require(_status != _ENTERED, \"ReentrancyGuard: reentrant call\") */\n      tag_59\n      jumpi\n      mload(0x40)\n      shl(0xe5, 0x461bcd)\n      dup2\n      mstore\n        /* \"#utility.yul\":3445:3447   */\n      0x20\n        /* \"@openzeppelin/contracts/security/ReentrancyGuard.sol\":2460:2523  require(_status != _ENTERED, \"ReentrancyGuard: reentrant call\") */\n      0x04\n      dup3\n      add\n        /* \"#utility.yul\":3427:3448   */\n      mstore\n        /* \"#utility.yul\":3484:3486   */\n      0x1f\n        /* \"#utility.yul\":3464:3482   */\n      0x24\n      dup3\n      add\n        /* \"#utility.yul\":3457:3487   */\n      mstore\n        /* \"#utility.yul\":3523:3556   */\n      0x5265656e7472616e637947756172643a207265656e7472616e742063616c6c00\n        /* \"#utility.yul\":3503:3521   */\n      0x44\n      dup3\n      add\n        /* \"#utility.yul\":3496:3557   */\n      mstore\n        /* \"#utility.yul\":3574:3592   */\n      0x64\n      add\n        /* \"@openzeppelin/contracts/security/ReentrancyGuard.sol\":2460:2523  require(_status != _ENTERED, \"ReentrancyGuard: reentrant call\") */\n      tag_30\n        /* \"#utility.yul\":3243:3598   */\n      jump\n        /* \"@openzeppelin/contracts/security/ReentrancyGuard.sol\":2460:2523  require(_status != _ENTERED, \"ReentrancyGuard: reentrant call\") */\n    tag_59:\n        /* \"@openzeppelin/contracts/security/ReentrancyGuard.sol\":1759:1760  2 */\n      0x02\n        /* \"@openzeppelin/contracts/security/ReentrancyGuard.sol\":2598:2605  _status */\n      0x00\n        /* \"@openzeppelin/contracts/security/ReentrancyGuard.sol\":2598:2616  _status = _ENTERED */\n      sstore\n        /* \"@openzeppelin/contracts/security/ReentrancyGuard.sol\":2336:2623  function _nonReentrantBefore() private {... */\n      jump\t// out\n        /* \"#utility.yul\":14:300   */\n    tag_8:\n        /* \"#utility.yul\":73:79   */\n      0x00\n        /* \"#utility.yul\":126:128   */\n      0x20\n        /* \"#utility.yul\":114:123   */\n      dup3\n        /* \"#utility.yul\":105:112   */\n      dup5\n        /* \"#utility.yul\":101:124   */\n      sub\n        /* \"#utility.yul\":97:129   */\n      slt\n        /* \"#utility.yul\":94:146   */\n      iszero\n      tag_65\n      jumpi\n        /* \"#utility.yul\":142:143   */\n      0x00\n        /* \"#utility.yul\":139:140   */\n      0x00\n        /* \"#utility.yul\":132:144   */\n      revert\n        /* \"#utility.yul\":94:146   */\n    tag_65:\n        /* \"#utility.yul\":168:191   */\n      dup2\n      calldataload\n      sub(shl(0xa0, 0x01), 0x01)\n        /* \"#utility.yul\":220:251   */\n      dup2\n      and\n        /* \"#utility.yul\":210:252   */\n      dup2\n      eq\n        /* \"#utility.yul\":200:270   */\n      tag_66\n      jumpi\n        /* \"#utility.yul\":266:267   */\n      0x00\n        /* \"#utility.yul\":263:264   */\n      0x00\n        /* \"#utility.yul\":256:268   */\n      revert\n        /* \"#utility.yul\":200:270   */\n    tag_66:\n        /* \"#utility.yul\":289:294   */\n      swap4\n        /* \"#utility.yul\":14:300   */\n      swap3\n      pop\n      pop\n      pop\n      jump\t// out\n        /* \"#utility.yul\":1507:1784   */\n    tag_37:\n        /* \"#utility.yul\":1574:1580   */\n      0x00\n        /* \"#utility.yul\":1627:1629   */\n      0x20\n        /* \"#utility.yul\":1615:1624   */\n      dup3\n        /* \"#utility.yul\":1606:1613   */\n      dup5\n        /* \"#utility.yul\":1602:1625   */\n      sub\n        /* \"#utility.yul\":1598:1630   */\n      slt\n        /* \"#utility.yul\":1595:1647   */\n      iszero\n      tag_73\n      jumpi\n        /* \"#utility.yul\":1643:1644   */\n      0x00\n        /* \"#utility.yul\":1640:1641   */\n      0x00\n        /* \"#utility.yul\":1633:1645   */\n      revert\n        /* \"#utility.yul\":1595:1647   */\n    tag_73:\n        /* \"#utility.yul\":1675:1684   */\n      dup2\n        /* \"#utility.yul\":1669:1685   */\n      mload\n        /* \"#utility.yul\":1728:1733   */\n      dup1\n        /* \"#utility.yul\":1721:1734   */\n      iszero\n        /* \"#utility.yul\":1714:1735   */\n      iszero\n        /* \"#utility.yul\":1707:1712   */\n      dup2\n        /* \"#utility.yul\":1704:1736   */\n      eq\n        /* \"#utility.yul\":1694:1754   */\n      tag_66\n      jumpi\n        /* \"#utility.yul\":1750:1751   */\n      0x00\n        /* \"#utility.yul\":1747:1748   */\n      0x00\n        /* \"#utility.yul\":1740:1752   */\n      revert\n        /* \"#utility.yul\":2694:2959   */\n    tag_50:\n        /* \"#utility.yul\":2767:2776   */\n      dup1\n      dup3\n      mul\n        /* \"#utility.yul\":2798:2807   */\n      dup2\n      iszero\n        /* \"#utility.yul\":2815:2830   */\n      dup3\n      dup3\n      div\n        /* \"#utility.yul\":2809:2831   */\n      dup5\n      eq\n        /* \"#utility.yul\":2795:2832   */\n      or\n        /* \"#utility.yul\":2785:2953   */\n      tag_79\n      jumpi\n        /* \"#utility.yul\":2875:2885   */\n      0x4e487b71\n        /* \"#utility.yul\":2870:2873   */\n      0xe0\n        /* \"#utility.yul\":2866:2886   */\n      shl\n        /* \"#utility.yul\":2863:2864   */\n      0x00\n        /* \"#utility.yul\":2856:2887   */\n      mstore\n        /* \"#utility.yul\":2910:2914   */\n      0x11\n        /* \"#utility.yul\":2907:2908   */\n      0x04\n        /* \"#utility.yul\":2900:2915   */\n      mstore\n        /* \"#utility.yul\":2938:2942   */\n      0x24\n        /* \"#utility.yul\":2935:2936   */\n      0x00\n        /* \"#utility.yul\":2928:2943   */\n      revert\n        /* \"#utility.yul\":2785:2953   */\n    tag_79:\n        /* \"#utility.yul\":2694:2959   */\n      swap3\n      swap2\n      pop\n      pop\n      jump\t// out\n\n    auxdata: 0xa26469706673582212208fa6e1bce4746d50a54e0b4bcf50f6f61cc96d73c16c6330a8cbb269ec53825b64736f6c634300081e0033\n}\n",
				"bytecode": {
					"linkReferences": {},
					"object": "6080604052348015600e575f5ffd5b506040516104a73803806104a7833981016040819052602b916080565b60015f81905580546001600160a01b039485166001600160a01b031991821617909155600280549390941692169190911790915560035560b4565b80516001600160a01b0381168114607b575f5ffd5b919050565b5f5f5f606084860312156091575f5ffd5b6098846066565b925060a4602085016066565b9150604084015190509250925092565b6103e6806100c15f395ff3fe60806040526004361061003d575f3560e01c8062362a95146100415780630d38ffcd146100565780637b1039991461007e578063fc0c546a146100b5575b5f5ffd5b61005461004f36600461033b565b6100d4565b005b348015610061575f5ffd5b5061006b60035481565b6040519081526020015b60405180910390f35b348015610089575f5ffd5b5060015461009d906001600160a01b031681565b6040516001600160a01b039091168152602001610075565b3480156100c0575f5ffd5b5060025461009d906001600160a01b031681565b6100dc6102e4565b5f34116101255760405162461bcd60e51b815260206004820152601260248201527126bab9ba1039b2b732103237b730ba34b7b760711b60448201526064015b60405180910390fd5b60015460405163b9209e3360e01b81526001600160a01b0383811660048301529091169063b9209e3390602401602060405180830381865afa15801561016d573d5f5f3e3d5ffd5b505050506040513d601f19601f820116820180604052508101906101919190610368565b6101d65760405162461bcd60e51b8152602060048201526016602482015275149958da5c1a595b9d081b9bdd081d995c9a599a595960521b604482015260640161011c565b5f816001600160a01b0316346040515f6040518083038185875af1925050503d805f811461021f576040519150601f19603f3d011682016040523d82523d5f602084013e610224565b606091505b50509050806102675760405162461bcd60e51b815260206004820152600f60248201526e151c985b9cd9995c8819985a5b1959608a1b604482015260640161011c565b5f600354346102769190610387565b6002546040516340c10f1960e01b8152336004820152602481018390529192506001600160a01b0316906340c10f19906044015f604051808303815f87803b1580156102c0575f5ffd5b505af11580156102d2573d5f5f3e3d5ffd5b5050505050506102e160015f55565b50565b60025f54036103355760405162461bcd60e51b815260206004820152601f60248201527f5265656e7472616e637947756172643a207265656e7472616e742063616c6c00604482015260640161011c565b60025f55565b5f6020828403121561034b575f5ffd5b81356001600160a01b0381168114610361575f5ffd5b9392505050565b5f60208284031215610378575f5ffd5b81518015158114610361575f5ffd5b80820281158282048414176103aa57634e487b7160e01b5f52601160045260245ffd5b9291505056fea26469706673582212208fa6e1bce4746d50a54e0b4bcf50f6f61cc96d73c16c6330a8cbb269ec53825b64736f6c634300081e0033",
					"opcodes": "PUSH1 0x80 PUSH1 0x40 MSTORE CALLVALUE DUP1 ISZERO PUSH1 0xE JUMPI PUSH0 PUSH0 REVERT JUMPDEST POP PUSH1 0x40 MLOAD PUSH2 0x4A7 CODESIZE SUB DUP1 PUSH2 0x4A7 DUP4 CODECOPY DUP2 ADD PUSH1 0x40 DUP2 SWAP1 MSTORE PUSH1 0x2B SWAP2 PUSH1 0x80 JUMP JUMPDEST PUSH1 0x1 PUSH0 DUP2 SWAP1 SSTORE DUP1 SLOAD PUSH1 0x1 PUSH1 0x1 PUSH1 0xA0 SHL SUB SWAP5 DUP6 AND PUSH1 0x1 PUSH1 0x1 PUSH1 0xA0 SHL SUB NOT SWAP2 DUP3 AND OR SWAP1 SWAP2 SSTORE PUSH1 0x2 DUP1 SLOAD SWAP4 SWAP1 SWAP5 AND SWAP3 AND SWAP2 SWAP1 SWAP2 OR SWAP1 SWAP2 SSTORE PUSH1 0x3 SSTORE PUSH1 0xB4 JUMP JUMPDEST DUP1 MLOAD PUSH1 0x1 PUSH1 0x1 PUSH1 0xA0 SHL SUB DUP2 AND DUP2 EQ PUSH1 0x7B JUMPI PUSH0 PUSH0 REVERT JUMPDEST SWAP2 SWAP1 POP JUMP JUMPDEST PUSH0 PUSH0 PUSH0 PUSH1 0x60 DUP5 DUP7 SUB SLT ISZERO PUSH1 0x91 JUMPI PUSH0 PUSH0 REVERT JUMPDEST PUSH1 0x98 DUP5 PUSH1 0x66 JUMP JUMPDEST SWAP3 POP PUSH1 0xA4 PUSH1 0x20 DUP6 ADD PUSH1 0x66 JUMP JUMPDEST SWAP2 POP PUSH1 0x40 DUP5 ADD MLOAD SWAP1 POP SWAP3 POP SWAP3 POP SWAP3 JUMP JUMPDEST PUSH2 0x3E6 DUP1 PUSH2 0xC1 PUSH0 CODECOPY PUSH0 RETURN INVALID PUSH1 0x80 PUSH1 0x40 MSTORE PUSH1 0x4 CALLDATASIZE LT PUSH2 0x3D JUMPI PUSH0 CALLDATALOAD PUSH1 0xE0 SHR DUP1 PUSH3 0x362A95 EQ PUSH2 0x41 JUMPI DUP1 PUSH4 0xD38FFCD EQ PUSH2 0x56 JUMPI DUP1 PUSH4 0x7B103999 EQ PUSH2 0x7E JUMPI DUP1 PUSH4 0xFC0C546A EQ PUSH2 0xB5 JUMPI JUMPDEST PUSH0 PUSH0 REVERT JUMPDEST PUSH2 0x54 PUSH2 0x4F CALLDATASIZE PUSH1 0x4 PUSH2 0x33B JUMP JUMPDEST PUSH2 0xD4 JUMP JUMPDEST STOP JUMPDEST CALLVALUE DUP1 ISZERO PUSH2 0x61 JUMPI PUSH0 PUSH0 REVERT JUMPDEST POP PUSH2 0x6B PUSH1 0x3 SLOAD DUP2 JUMP JUMPDEST PUSH1 0x40 MLOAD SWAP1 DUP2 MSTORE PUSH1 0x20 ADD JUMPDEST PUSH1 0x40 MLOAD DUP1 SWAP2 SUB SWAP1 RETURN JUMPDEST CALLVALUE DUP1 ISZERO PUSH2 0x89 JUMPI PUSH0 PUSH0 REVERT JUMPDEST POP PUSH1 0x1 SLOAD PUSH2 0x9D SWAP1 PUSH1 0x1 PUSH1 0x1 PUSH1 0xA0 SHL SUB AND DUP2 JUMP JUMPDEST PUSH1 0x40 MLOAD PUSH1 0x1 PUSH1 0x1 PUSH1 0xA0 SHL SUB SWAP1 SWAP2 AND DUP2 MSTORE PUSH1 0x20 ADD PUSH2 0x75 JUMP JUMPDEST CALLVALUE DUP1 ISZERO PUSH2 0xC0 JUMPI PUSH0 PUSH0 REVERT JUMPDEST POP PUSH1 0x2 SLOAD PUSH2 0x9D SWAP1 PUSH1 0x1 PUSH1 0x1 PUSH1 0xA0 SHL SUB AND DUP2 JUMP JUMPDEST PUSH2 0xDC PUSH2 0x2E4 JUMP JUMPDEST PUSH0 CALLVALUE GT PUSH2 0x125 JUMPI PUSH1 0x40 MLOAD PUSH3 0x461BCD PUSH1 0xE5 SHL DUP2 MSTORE PUSH1 0x20 PUSH1 0x4 DUP3 ADD MSTORE PUSH1 0x12 PUSH1 0x24 DUP3 ADD MSTORE PUSH18 0x26BAB9BA1039B2B732103237B730BA34B7B7 PUSH1 0x71 SHL PUSH1 0x44 DUP3 ADD MSTORE PUSH1 0x64 ADD JUMPDEST PUSH1 0x40 MLOAD DUP1 SWAP2 SUB SWAP1 REVERT JUMPDEST PUSH1 0x1 SLOAD PUSH1 0x40 MLOAD PUSH4 0xB9209E33 PUSH1 0xE0 SHL DUP2 MSTORE PUSH1 0x1 PUSH1 0x1 PUSH1 0xA0 SHL SUB DUP4 DUP2 AND PUSH1 0x4 DUP4 ADD MSTORE SWAP1 SWAP2 AND SWAP1 PUSH4 0xB9209E33 SWAP1 PUSH1 0x24 ADD PUSH1 0x20 PUSH1 0x40 MLOAD DUP1 DUP4 SUB DUP2 DUP7 GAS STATICCALL ISZERO DUP1 ISZERO PUSH2 0x16D JUMPI RETURNDATASIZE PUSH0 PUSH0 RETURNDATACOPY RETURNDATASIZE PUSH0 REVERT JUMPDEST POP POP POP POP PUSH1 0x40 MLOAD RETURNDATASIZE PUSH1 0x1F NOT PUSH1 0x1F DUP3 ADD AND DUP3 ADD DUP1 PUSH1 0x40 MSTORE POP DUP2 ADD SWAP1 PUSH2 0x191 SWAP2 SWAP1 PUSH2 0x368 JUMP JUMPDEST PUSH2 0x1D6 JUMPI PUSH1 0x40 MLOAD PUSH3 0x461BCD PUSH1 0xE5 SHL DUP2 MSTORE PUSH1 0x20 PUSH1 0x4 DUP3 ADD MSTORE PUSH1 0x16 PUSH1 0x24 DUP3 ADD MSTORE PUSH22 0x149958DA5C1A595B9D081B9BDD081D995C9A599A5959 PUSH1 0x52 SHL PUSH1 0x44 DUP3 ADD MSTORE PUSH1 0x64 ADD PUSH2 0x11C JUMP JUMPDEST PUSH0 DUP2 PUSH1 0x1 PUSH1 0x1 PUSH1 0xA0 SHL SUB AND CALLVALUE PUSH1 0x40 MLOAD PUSH0 PUSH1 0x40 MLOAD DUP1 DUP4 SUB DUP2 DUP6 DUP8 GAS CALL SWAP3 POP POP POP RETURNDATASIZE DUP1 PUSH0 DUP2 EQ PUSH2 0x21F JUMPI PUSH1 0x40 MLOAD SWAP2 POP PUSH1 0x1F NOT PUSH1 0x3F RETURNDATASIZE ADD AND DUP3 ADD PUSH1 0x40 MSTORE RETURNDATASIZE DUP3 MSTORE RETURNDATASIZE PUSH0 PUSH1 0x20 DUP5 ADD RETURNDATACOPY PUSH2 0x224 JUMP JUMPDEST PUSH1 0x60 SWAP2 POP JUMPDEST POP POP SWAP1 POP DUP1 PUSH2 0x267 JUMPI PUSH1 0x40 MLOAD PUSH3 0x461BCD PUSH1 0xE5 SHL DUP2 MSTORE PUSH1 0x20 PUSH1 0x4 DUP3 ADD MSTORE PUSH1 0xF PUSH1 0x24 DUP3 ADD MSTORE PUSH15 0x151C985B9CD9995C8819985A5B1959 PUSH1 0x8A SHL PUSH1 0x44 DUP3 ADD MSTORE PUSH1 0x64 ADD PUSH2 0x11C JUMP JUMPDEST PUSH0 PUSH1 0x3 SLOAD CALLVALUE PUSH2 0x276 SWAP2 SWAP1 PUSH2 0x387 JUMP JUMPDEST PUSH1 0x2 SLOAD PUSH1 0x40 MLOAD PUSH4 0x40C10F19 PUSH1 0xE0 SHL DUP2 MSTORE CALLER PUSH1 0x4 DUP3 ADD MSTORE PUSH1 0x24 DUP2 ADD DUP4 SWAP1 MSTORE SWAP2 SWAP3 POP PUSH1 0x1 PUSH1 0x1 PUSH1 0xA0 SHL SUB AND SWAP1 PUSH4 0x40C10F19 SWAP1 PUSH1 0x44 ADD PUSH0 PUSH1 0x40 MLOAD DUP1 DUP4 SUB DUP2 PUSH0 DUP8 DUP1 EXTCODESIZE ISZERO DUP1 ISZERO PUSH2 0x2C0 JUMPI PUSH0 PUSH0 REVERT JUMPDEST POP GAS CALL ISZERO DUP1 ISZERO PUSH2 0x2D2 JUMPI RETURNDATASIZE PUSH0 PUSH0 RETURNDATACOPY RETURNDATASIZE PUSH0 REVERT JUMPDEST POP POP POP POP POP POP PUSH2 0x2E1 PUSH1 0x1 PUSH0 SSTORE JUMP JUMPDEST POP JUMP JUMPDEST PUSH1 0x2 PUSH0 SLOAD SUB PUSH2 0x335 JUMPI PUSH1 0x40 MLOAD PUSH3 0x461BCD PUSH1 0xE5 SHL DUP2 MSTORE PUSH1 0x20 PUSH1 0x4 DUP3 ADD MSTORE PUSH1 0x1F PUSH1 0x24 DUP3 ADD MSTORE PUSH32 0x5265656E7472616E637947756172643A207265656E7472616E742063616C6C00 PUSH1 0x44 DUP3 ADD MSTORE PUSH1 0x64 ADD PUSH2 0x11C JUMP JUMPDEST PUSH1 0x2 PUSH0 SSTORE JUMP JUMPDEST PUSH0 PUSH1 0x20 DUP3 DUP5 SUB SLT ISZERO PUSH2 0x34B JUMPI PUSH0 PUSH0 REVERT JUMPDEST DUP2 CALLDATALOAD PUSH1 0x1 PUSH1 0x1 PUSH1 0xA0 SHL SUB DUP2 AND DUP2 EQ PUSH2 0x361 JUMPI PUSH0 PUSH0 REVERT JUMPDEST SWAP4 SWAP3 POP POP POP JUMP JUMPDEST PUSH0 PUSH1 0x20 DUP3 DUP5 SUB SLT ISZERO PUSH2 0x378 JUMPI PUSH0 PUSH0 REVERT JUMPDEST DUP2 MLOAD DUP1 ISZERO ISZERO DUP2 EQ PUSH2 0x361 JUMPI PUSH0 PUSH0 REVERT JUMPDEST DUP1 DUP3 MUL DUP2 ISZERO DUP3 DUP3 DIV DUP5 EQ OR PUSH2 0x3AA JUMPI PUSH4 0x4E487B71 PUSH1 0xE0 SHL PUSH0 MSTORE PUSH1 0x11 PUSH1 0x4 MSTORE PUSH1 0x24 PUSH0 REVERT JUMPDEST SWAP3 SWAP2 POP POP JUMP INVALID LOG2 PUSH5 0x6970667358 0x22 SLT KECCAK256 DUP16 0xA6 RJUMPI 0xBCE4 PUSH21 0x6D50A54E0B4BCF50F6F61CC96D73C16C6330A8CBB2 PUSH10 0xEC53825B64736F6C6343 STOP ADDMOD 0x1E STOP CALLER "
				},
				"gasEstimates": {
					"creation": {
						"codeDepositCost": "199600",
						"executionCost": "infinite",
						"totalCost": "infinite"
					},
					"external": {
						"donate(address)": "infinite",
						"donationRate()": "2283",
						"registry()": "2358",
						"token()": "2380"
					}
				},
				"methodIdentifiers": {
					"donate(address)": "00362a95",
					"donationRate()": "0d38ffcd",
					"registry()": "7b103999",
					"token()": "fc0c546a"
				}
			},
			"storageLayout": {
				"storage": [
					{
						"astId": 10,
						"contract": "DonationRouter.sol:DonationRouter",
						"label": "_status",
						"offset": 0,
						"slot": "0",
						"type": "t_uint256"
					},
					{
						"astId": 88,
						"contract": "DonationRouter.sol:DonationRouter",
						"label": "registry",
						"offset": 0,
						"slot": "1",
						"type": "t_contract(IHealthActorRegistry)75"
					},
					{
						"astId": 91,
						"contract": "DonationRouter.sol:DonationRouter",
						"label": "token",
						"offset": 0,
						"slot": "2",
						"type": "t_contract(IFlamebornToken)83"
					},
					{
						"astId": 93,
						"contract": "DonationRouter.sol:DonationRouter",
						"label": "donationRate",
						"offset": 0,
						"slot": "3",
						"type": "t_uint256"
					}
				],
				"types": {
					"t_contract(IFlamebornToken)83": {
						"encoding": "inplace",
						"label": "contract IFlamebornToken",
						"numberOfBytes": "20"
					},
					"t_contract(IHealthActorRegistry)75": {
						"encoding": "inplace",
						"label": "contract IHealthActorRegistry",
						"numberOfBytes": "20"
					},
					"t_uint256": {
						"encoding": "inplace",
						"label": "uint256",
						"numberOfBytes": "32"
					}
				}
			},
			"userdoc": {
				"kind": "user",
				"methods": {},
				"version": 1
			}
		}
	}
}